:020000020000FC
:100000000C9467030C9472000C9472000C947200B0
:100010000C9472000C947D100C9498020C946A025B
:100020000C9481020C9472000C9472000C94720077
:100030000C9472000C9444010C9472000C947200A5
:100040000C9472000C9417030C9472000C947200C0
:100050000C9472000C9473000C9472000C94720057
:100060000C9472000C9472000C9472000C94720048
:100070000C9472000C9472000C9472000C94720038
:100080000C9472000C9472000C9472000C94720028
:100090000C9472000C9472000C9472000C94720018
:1000A0000C9472000C9472000C9472000C94720008
:1000B0000C9472000C9472000C9472000C947200F8
:1000C0000C9472000C9472000C9472000C947200E8
:1000D0000C9472000C9472000C9472000C947200D8
:1000E0000C94720018950F930FB70F931F932F93D3
:1000F00000910202013011F40C9491000E947205EB
:1001000000913E03003039F0002700933E03009138
:100110003D0300933F030E9499040E9483050C94C1
:10012000D70000910302003079F00E94720500911F
:100130003E03003039F0002700933E0300913D0359
:1001400000933F030E9483050E946C0F0130C1F4AD
:1001500000911902003019F000E00E94180D00E033
:100160000E94720500936A040E9483050E94670F33
:100170000E9472050E9499040E9483050C94D70086
:100180000E940A130E9472050E9499040E9483052E
:100190000E94B814013059F000917204039505389B
:1001A00021F400E00E94441400E0009372040091E6
:1001B00074040395023319F40E94FA1400E00093CA
:1001C00074040E94720500913B03003059F00A95B7
:1001D00000933B03003031F400911E020064009351
:1001E0001E020DBB00913C03003059F00A950093AC
:1001F0003C03003031F400911E02006800931E029F
:100200000DBB0E9483052F911F910F910FBF0F917E
:1002100018950F930FB70F931F932F9300917800AA
:100220002091790006950695220F220F220F220FAA
:10023000220F220F202B0091430310914403020F41
:1002400020E0121F209142032395243089F42130AD
:1002500041F088941795079588942795213009F0E7
:10026000F8CF889407950093460300E010E020E063
:100270000093430310934403209342032F911F9153
:100280000F910FBF0F9118950F930FB70F931F93F7
:100290002F933F934F930E947205009170000F932C
:1002A00000E0009370000E9483050E947205209177
:1002B0004503203019F40E9483052FC000912002CD
:1002C000039510912102011728F40E9483050093E1
:1002D000200226C000E0009345030E9483052030E1
:1002E00054F00FE710911D02011B201710F02FE7AB
:1002F0000CC0210F0AC000911D02122F119510177A
:1003000010F020E002C0202F211B10911D021217B7
:1003100021F020931D020E94B10B00E00093200207
:100320000E94720500913F03309140031FEF10932C
:100330003F030E94830510913403209132030F3F45
:10034000D9F41F3F11F40C944402313061F4239529
:1003500020933203203039F040913303439540938A
:1003600033030C9444020093340300E000933303FE
:10037000009332030C944402011711F4239503C037
:100380000093340320E02093320340E0203029F032
:10039000303019F040913303439540933303F3E039
:1003A000EFE5E00F0027F01F0081003049F40E94C4
:1003B0005905103011F40C945B0200E00C943302E8
:1003C000013049F40E945305103011F40C945B0283
:1003D00001E00C943302023051F40E9448051030C1
:1003E00011F40C945B0202E021E00C943302033020
:1003F00051F40E944805103011F40C945B0202E0A5
:100400002FEF0C943302043051F40E944805103051
:1004100011F40C945B0204E021E00C9433020530EB
:1004200051F40E944805103011F40C945B0204E072
:100430002FEF0C943302063051F40E94480510301F
:1004400011F40C945B0205E02FEF0C94330207309B
:10045000D9F40E944805103011F40C945B0205E0B9
:1004600021E00C94330210910302103021F40E9419
:10047000180D0C945B02009336032093370305E0BC
:100480000E9444140C945B020E94720500912404A3
:100490000F3F0E94830579F02091250430912604B6
:1004A000409127040E9472051FEF109324040E94BC
:1004B00083050E94180D0E9472050F910093700031
:1004C0000E9483054F913F912F911F910F910FBF74
:1004D0000F9118950F930FB70F930E94720500911B
:1004E0001E020F7B00931E020DBB0FEF00933B0318
:1004F0000E94830500E00E94180D0F910FBF0F911D
:1005000018950F930FB70F930E94720500911E026A
:100510000F7700931E020DBB0FEF00933C030E9468
:10052000830501E00E94180D0F910FBF0F911895E0
:100530000E9472050F930FB70F931F932F9300E044
:100540000DBB00936E00009370000093570300935F
:1005500058030093590300915A030F3F61F000E0E4
:100560000093810002E000936E0002E000937000AF
:100570000FEF00935A0300E000935C0314E1109323
:100580005B03009385000093840011E004EF109357
:1005900089000093880009E00093810002E0009345
:1005A0006F000E9483050E947F0C0E94720510E07C
:1005B00010936E00109370001093810027E210E1F9
:1005C000209389001093880010E010935C0311E0E1
:1005D00010935B0319E010938100003071F01FEF5E
:1005E00010935A0302E000936E0002E00093700043
:1005F00002E000936F0000EC11C01FEF109359034D
:1006000010E010935A0302E000936E0002E00093A2
:10061000700002E000936F0000911E020DBB2F914D
:100620001F910F910FBF0F910E94830518950E9493
:1006300072050F930FB70F931F9310915B03143143
:10064000B1F40091570303950093570300915C03A5
:10065000039500935C03011799F5009159030395E5
:100660000093590300E000935C030C946003009135
:1006700059030F3F79F0039500935903093100F1B5
:100680000FEF0093590300E000935A0300911E02FC
:100690000DBB16C000915A03039500935A0304360C
:1006A00078F000E00093810002E000936E0002E029
:1006B0000093700000E0009340030FEF00935A0393
:1006C0001F910F910FBF0F910E948305189501E2B2
:1006D0000EBF0FEF0DBF00E010E810936100009314
:1006E00061000FEF01B90FEF04B900EC07B900EE9C
:1006F0000AB90FE00DB900E00093100007E003BB5A
:1007000000E0009301010FE3009304010FEF009359
:1007100007010FEF00930A0100E00093000200932D
:10072000010200E00093190200E000931A0200E0C9
:1007300000931C0200E000931B0202E004BD05E0F0
:1007400005BD0AE007BD02E00093B00007E000939A
:10075000B10008EC0093B30039B13F71132F117051
:1007600029F410EE10931E0210E004C010ED109357
:100770001E0211E010930202132F127011F4132FB6
:1007800008C010E020E00E94A505000F000F132F05
:10079000102B109318021695169514BB00E00093C9
:1007A0000302009304020AEF00936A0000911E0204
:1007B0000DBB02E000936E0002E00093700000E0C9
:1007C00000933B0300933C0300910202013011F4BB
:1007D0000E94CE0D11E020E00E94A50500931D02AD
:1007E0001FEF10935D0310933D0310E010933E0341
:1007F00010E010935E0310E0109359031FEF109365
:100800005A03F3E0EFE50FEF10E001931395103476
:10081000E0F3F3E0EFE510E0148711E0158712E054
:10082000108B13E0118B14E0128B15E0138B16E084
:10083000148F17E0158FEBE6F4E010E000E0019371
:1008400013951630E0F3009371040093720410E0E6
:100850001093380301E00093390302E00093410351
:1008600010934203109343031093440310934603E1
:100870001093450310933203109333030FEF00934B
:100880003F03009334030093240400E000937404B6
:1008900000937504009376040093790400937A041E
:1008A0000093780400E00093770412E020E00E94B7
:1008B000A5050093240213E020E00E94A505009303
:1008C000250214E020E00E94A505009326020E9464
:1008D0004C0715E020E00E94A505009327020E9426
:1008E00046070E942C070E94C0060E94740600E082
:1008F000009378020093C9020093CA020093CB02CE
:1009000000E00093220200E0009373040E94B10B08
:100910003FE00E94720A01E0009300027894009187
:100920000202013011F40E94840E00000000000059
:10093000FCCF0F931F932F933F9330E006B1102FFE
:10094000147011F410E006C0102F187011F410E0AC
:1009500001C011E020911A0210931A02121709F037
:100960003AE0102F117011F500911902023091F444
:1009700000911D0211E020E00E949D0500912602D9
:1009800014E020E00E949D050091270215E020E080
:100990000E949D05003039F110E0109319023AE0F1
:1009A00010E010931C0210E01EB91DC0102F107231
:1009B000B1F4009119020130B1F412E01093190260
:1009C0003AE01FE01EB90000000000000000000037
:1009D00006B10870C1F701E000931C0204C011E0E9
:1009E000109319023AE000911B0210911902003095
:1009F00031F4123059F40E94FA0B11E005C01230A4
:100A000029F00E94FD0B10E010931B0206B110911B
:100A10001C02113089F4102F187041F112E010936C
:100A20001C0210911902123009F5102F1270F1F406
:100A300001E00E94C40D1AC0123081F4102F107111
:100A4000A9F413E010931C0200E00E94C40D10E012
:100A50001EB910E0109319023AE008C0133031F4C7
:100A6000102F107119F010E010931C020091730404
:100A700010911D02011719F0346010937304303087
:100A800011F00E94720A3F912F911F910F910895CA
:100A9000203029F02A3028F011271093320311E07A
:100AA00001C010E00895403011F010E001C011E0E5
:100AB0000895403071F04E3140F0109135031130FF
:100AC00041F011E01093350306C010E01093350398
:100AD00002C010E000C00895312E312E3020524364
:100AE00035202000F8940F930FB70F930091000268
:100AF000013029F4009101020395009301020F9146
:100B00000FBF0F910895F8940F930FB70F930091B3
:100B10000002013071F400910102003029F00A95C1
:100B200000930102003029F40F910FBF0F917894C8
:100B300008950F910FBF0F910895F999FECF22BD2F
:100B400011BD00BDFA9AF99A0895F999FECF22BD18
:100B500011BDF89A00B508950E9472050F93009197
:100B6000C902003039F001E00093CA020F910E94DF
:100B70008305089501E00093C9020E9483051F9335
:100B80002F933F934F935F936F93CF93DF93EF93A5
:100B9000FF930E947205E8E2F2E0C9E7D2E010910B
:100BA000780220E031E01F9313231F9119F474960B
:100BB000649605C044E1019109934A95E1F72395B4
:100BC000330F243009F0EFCF009178021091CB025F
:100BD000102B1093CB0200E0009378020093CA021E
:100BE0000E94830520E031E0E9E7F2E0CCECD2E0BE
:100BF0000091CA02003069F61F9313231F9119F464
:100C00007496649623C05FEF6FEF40E001917881A6
:100C1000071729F4219643954431C1F711C05F3F6E
:100C200021F06F3F11F0541721F0542F622F0E94D2
:100C3000DC060E94F606099353954395443131F73B
:100C40000FEF3027132330271093CB022395243046
:100C500011F0330FCDCF0E9472050091CA0200300F
:100C600019F00E94830595CF103019F00E9483057A
:100C7000B9CF00E00093C902FF91EF91DF91CF91CE
:100C80006F915F914F913F912F911F910F910E9412
:100C9000830508950F93CF93DF93C8E2D2E020300D
:100CA00019F064962A95FCCF24E1FF0FEE0F08F4AB
:100CB000F395059109932A95E1F7DF91CF910F9173
:100CC00008950F93CF93DF93C8E2D2E0203019F05C
:100CD00064962A95FCCF24E1019109932A95E1F7C6
:100CE000DF91CF910F9108950F931F932F93CF937F
:100CF000DF93CCECD2E000E014E024E109932A95E4
:100D0000E9F71A95D1F7DF91CF912F911F910F91AC
:100D100008950F9300912202003009F409C00130B8
:100D200019F40E94F80A04C0023011F40E94280B42
:100D30000F910895CF93DF93C8E2D2E0203019F0ED
:100D400064962A95FCCFC10F08F4D3952591299379
:100D50000A95E1F7DF91CF910895CF93DF93C8E231
:100D6000D2E0203019F064962A95FCCFC10F08F428
:100D7000D395219129930A95E1F7DF91CF910895B9
:100D80000F9300910B01087F00930B0100E000938B
:100D900008010CE30E940C070CE00E940C0706E01F
:100DA0000E940C0701E00E940C0708E20E941F0746
:100DB0000A95E1F70F9108950F931F93603011F496
:100DC00010E00BC0613011F410E407C0623011F480
:100DD00014E103C0633039F414E5150F0FE7012364
:100DE00000680E940C071F910F9108951F930093B4
:100DF000080110910B01116010930B011560109305
:100E00000B010E941F0710910B011A7F10930B0119
:100E10000E941F071F9108951F93009308011091CE
:100E20000B01146010930B010E941F0710910B011E
:100E30001B7F10930B010E941F071F9108950F93B2
:100E40000BE40000000000000000000000000000B3
:100E50000A95B9F70F9108951F9310910B0110682F
:100E600010930B010F9306E01AEF0E941F071A95CB
:100E7000E1F70A95C9F70F911F9108951F931091FB
:100E80000B011F7710930B011F9108951F9310E022
:100E90000E9452071F9108951F9311E00E9452076C
:100EA0001F9108952F933F934F9320E05D98312F2A
:100EB000330F330F330F330F330F330F42E0330F42
:100EC00008F45E9A5F9A00005F9800005E984A9569
:100ED000B1F7302F48E0330F08F45E9A5F9A0000B4
:100EE0005F9800005E984A95B1F75D9A4F913F91E7
:100EF0002F9108952053494E474C45204348414E79
:100F00004E454C20414D50202A2A2A2A2020534C5D
:100F1000454550494E4720202A2A2A2A2A2A2A2A89
:100F20002020504F574552494E4720202A2A2A2A2E
:100F30002A2A2A2A2020204D555445442020202AA0
:100F40002A2A2A202A2A2A2A2020504C4159494E4E
:100F50004720202A2A2A2A20566F6C756D653A2070
:100F6000787878202F203132372020205665727310
:100F7000696F6E3A207878787878787878787878A9
:100F800054656D702E3A204C3D78782E7820523D75
:100F900078782E7854656D702E3A20202A2A2045C4
:100FA00072726F72202A2A204C45465420434841D1
:100FB0004E4E454C204F4646534554204D6F646578
:100FC0003A20454449542020202020202020202061
:100FD00043757272656E743A207878782E7878202E
:100FE000644220204E65773A2020202020787878AF
:100FF0002E787820644220205249474854204348A4
:10100000414E4E454C204F46465345544D6F646506
:101010003A20454449542020202020202020202010
:1010200043757272656E743A207878782E787820DD
:10103000644220204E65773A20202020207878785E
:101040002E787820644220203030303030313030FB
:101050003230303330303430303530303630303775
:101060003030383030393031303031313031323069
:101070003133303134303135303136303137303151
:101080003830313930323030323130323230323340
:101090003032343032353032363032373032383028
:1010A0003239303330303331303332303333303320
:1010B00034303335303336303337303338303339FA
:1010C0003034303034313034323034333034343002
:1010D00034353034363034373034383034393035D4
:1010E00030303531303532303533303534303535D8
:1010F00030353630353730353830353930363030B8
:1011000036313036323036333036343036353036AC
:101110003630363730363830363930373030373190
:101120003037323037333037343037353037363088
:101130003737303738303739303830303831303869
:10114000323038333038343038353038363038375C
:101150003038383038393039303039313039323050
:101160003933303934303935303936303937303930
:10117000383039393130303130313130323130334B
:10118000313034313035313036313037313038313B
:101190003039313130313131313132313133313136
:1011A000343131353131363131373131383131390E
:1011B0003132303132313132323132333132343115
:1011C00032353132363132372D2D2D2D30302E350E
:1011D00030312E3030312E3530322E3030322E3507
:1011E00030332E3030332E3530342E3030342E35EF
:1011F00030352E3030352E3530362E3030362E35D7
:1012000030372E3030372E3530382E3030382E35BE
:1012100030392E3030392E3531302E3031302E35B8
:1012200031312E3031312E3531322E3031322E35B2
:1012300031332E3031332E3531342E3031342E359A
:1012400031352E3031352E3531362E3031362E3582
:1012500031372E3031372E3531382E3031382E356A
:1012600031392E3031392E3532302E3032302E3564
:1012700032312E3032312E3532322E3032322E355E
:1012800032332E3032332E3532342E3032342E3546
:1012900032352E3032352E3532362E3032362E352E
:1012A00032372E3032372E3532382E3032382E3516
:1012B00032392E3032392E3533302E3033302E3510
:1012C00033312E3033312E3533322E3033322E350A
:1012D00033332E3033332E3533342E3033342E35F2
:1012E00033352E3033352E3533362E3033362E35DA
:1012F00033372E3033372E3533382E3033382E35C2
:1013000033392E3033392E3534302E3034302E35BB
:1013100034312E3034312E3534322E3034322E35B5
:1013200034332E3034332E3534342E3034342E359D
:1013300034352E3034352E3534362E3034362E3585
:1013400034372E3034372E3534382E3034382E356D
:1013500034392E3034392E3535302E3035302E3567
:1013600035312E3035312E3535322E3035322E3561
:1013700035332E3035332E3535342E3035342E3549
:1013800035352E3035352E3535362E3035362E3531
:1013900035372E3035372E3535382E3035382E3519
:1013A00035392E3035392E3536302E3036302E3513
:1013B00036312E3036312E3536322E3036322E350D
:1013C00036332E3036332E3536342E3036342E35F5
:1013D00036352E3036352E3536362E3036362E35DD
:1013E00036372E3036372E3536382E3036382E35C5
:1013F00036392E3036392E3537302E3037302E35BF
:1014000037312E3037312E3537322E3037322E35B8
:1014100037332E3037332E3537342E3037342E35A0
:1014200037352E3037352E3537362E3037362E3588
:1014300037372E3037372E3537382E3037382E3570
:1014400037392E3037392E3538302E3038302E356A
:1014500038312E3038312E3538322E3038322E3564
:1014600038332E3038332E3538342E3038342E354C
:1014700038352E3038352E3538362E3038362E3534
:1014800038372E3038372E3538382E3038382E351C
:1014900038392E3038392E3539302E3039302E3516
:1014A00039312E3039312E3539322E3039322E3510
:1014B00039332E3039332E3539342E3039352E35F7
:1014C00039362E3039362E3539372E3039372E35DC
:1014D00039382E3039382E3539392E3039392E35C4
:1014E0003130302BEF93FF930F931F932F93032FE4
:1014F000017081F000910402003039F0E4E0F2E084
:1015000020E00E9461060C948A0AEAE7F7E020E0F6
:101510000E944A06032F0270D9F00091190202308E
:1015200051F0003021F4E4E8F7E00C94A50AEEE86D
:10153000F7E00C94A50A00911A02003021F4E8E9C2
:10154000F7E00C94A50AE2EAF7E021E00E944A06DF
:10155000032F047059F0ECEAF7E022E00E944A06FB
:101560000E94580B18E022E00E949A06032F087090
:10157000A9F1009119020030A1F4E6EBF7E023E0B5
:101580000E944A0604E119E0011B19E023E0ECE6A1
:10159000F5E0FF0FEE0F08F4F3950E949A060C9405
:1015A000EE0A009177040430A1F0E0ECF7E023E0CC
:1015B0000E944A0600E00E94960B19E023E00E9478
:1015C0009A0601E00E94960B10E123E00E949A0621
:1015D00005C0EAECF7E023E00E944A063093780267
:1015E0000E94AC052F911F910F91FF91EF910895EB
:1015F000EF93FF930F93E4EDF7E020E00E944A069B
:10160000EEEDF7E021E00E944A06E8EEF7E022E086
:101610000E944A06009124020E946B0B19E022E00E
:101620000E94AD06E2EFF7E023E00E944A06009137
:1016300023020E946B0B19E023E00E94AD060FE02D
:10164000009378020E94AC050F91FF91EF910895ED
:10165000EF93FF930F93ECEFF7E020E00E944A0630
:10166000E6E0F8E021E00E944A06E0E1F8E022E04E
:101670000E944A06009125020E946B0B19E022E0AD
:101680000E94AD06EAE1F8E023E00E944A060091DC
:1016900023020E946B0B19E023E00E94AD060FE0CD
:1016A000009378020E94AC050F91FF91EF9108958D
:1016B0001F930F921F9210911D0203E0019FE4E21D
:1016C000F8E0FF0FEE0F08F4F395E00DF11D1F9009
:1016D0000F901F9108951F932F930F921F92CF93F6
:1016E000DF93202F20300CF4219513E0219FE4E2BA
:1016F000F8E0FF0FEE0F08F4F395E00DF11DCCE1DB
:10170000D3E01BE200300CF41DE2199313E00591C5
:1017100009931A95E1F7ECE1F3E003E00395DF911B
:10172000CF911F900F902F911F9108951F930F92AB
:101730001F92003019F410917A0402C010917904BC
:10174000173C08F016EC04E0019FE4EEF8E0FF0F10
:10175000EE0F08F4F395E00DF11D1F900F901F910F
:1017600008950F931F932F9300911D021091220251
:10177000113019F41091230202C01091240210308C
:101780002CF0100F103850F01FE708C0212F2195C2
:10179000201710F010E002C0102F121B22B12117E9
:1017A00031F00F93012F12E00E94660C0F911091FF
:1017B0002202123019F41091230202C01091250266
:1017C00010302CF0100F103850F01FE708C0212FF8
:1017D0002195201710F010E002C0102F121B25B128
:1017E000211721F0012F15E00E94660C2F911F9107
:1017F0000F910895179A2F9A089517982F98089582
:1018000016980E94720C15980E94720C14980E94EF
:10181000720C13980E94720C12980E94720C11980C
:101820000E94720C10980E94720C08952E980E94CB
:10183000720C2D980E94720C2C980E94720C2B989E
:101840000E94720C2A980E94720C29980E94720CB5
:1018500028980E94720C089500FD109A0E94720C44
:1018600001FD119A0E94720C02FD129A0E94720CE4
:1018700003FD139A0E94720C04FD149A0E94720CCC
:1018800005FD159A0E94720C06FD169A0E94720CB4
:10189000089500FD289A0E94720C01FD299A0E9469
:1018A000720C02FD2A9A0E94720C03FD2B9A0E9470
:1018B000720C04FD2C9A0E94720C05FD2D9A0E9458
:1018C000720C06FD2E9A0E94720C0895153029F0B4
:1018D0000E94000C0E942C0C04C00E94160C0E9456
:1018E000490C08950F9304E9000000000000000077
:1018F0000000000000000A95B9F70F9108953F938A
:101900004F935F936F937F9314E2110F65990C943B
:10191000EE0C659906C0009157030117D0F30C94A3
:10192000EE0C659B06C0009157030117D0F30C9491
:10193000EE0C00915703009358038894202F0695CE
:10194000200F102F0695100F0E94F50C3F3F11F449
:101950000C94EE0C71E000915D03031709F470E044
:10196000552765E00E94F50C3F3FC1F1889430FD9A
:101970000894551F6A95B1F700915E03051719F099
:101980000EEF0C94EF0C703079F40E947205009108
:101990003E03039500933E0301E0009340030E9441
:1019A000830501E00C94EF0C552766E00E94F50CCE
:1019B0003F3FA1F0889430FD0894551F6A95B1F718
:1019C0000E94720550933D0301E000933E0301E045
:1019D000009340030E948305002701C00FEF7F9111
:1019E0006F915F914F913F910895002700935703A6
:1019F000009157030117E0F33CB130724CB14072D3
:101A0000431731F4009157030217C0F33FEF0895D5
:101A1000332745FF31E008950C94200D0C944C0DB4
:101A20000C945A0D0C947D0D0C947E0D0C94A10D0C
:101A3000FDE0ECE0000FE01F08F4F3950995089530
:101A40000E9472051F932F93009119020030D1F06C
:101A500006B10270B9F001E00E94C40D1FEF0FEF54
:101A60000000000000000000000000000000000076
:101A70000000000000000000000000000A9581F74F
:101A80001A9569F700E00E94C40D0E9499042F91F5
:101A90001F910E94830508950E947205009119020A
:101AA000023029F401E00E94C40D0E9499040E94B2
:101AB000830508951F932F93203054F00FE7109162
:101AC0001D02011B201710F02FE70CC0210F0AC0C8
:101AD00000911D02122F1195101710F020E002C086
:101AE000202F211B10911D02121721F020931D029F
:101AF0000E94B10B2F911F91089508951F932F936A
:101B0000203054F00FEF10912702011B201710F026
:101B10002FEF0CC0210F0AC000912702122F119540
:101B2000101710F020E002C0202F211B0091270287
:101B3000021721F0209327020E9446072F911F9140
:101B400008951F932F93203054F00FEF1091260229
:101B5000011B201710F02FEF0CC0210F0AC00091BD
:101B60002602122F1195101710F020E002C0202F2E
:101B7000211B00912602021721F0209326020E94C9
:101B80004C072F911F9108951F932F93003011F44C
:101B9000369A01C0379A2F911F9108950F931F9382
:101BA0002F930E94FC1107E110E027E00E9494129D
:101BB000039520ED0E94941209E110E028E00E94B4
:101BC000941216E020E00E94A505202F01E010E00D
:101BD0000E94BD1217E020E00E94A505202F10E012
:101BE0000E94D51218E020E00E94A505202F10E0E9
:101BF0000E94D51219E020E00E94A505202F11E0D7
:101C00000E94D5121AE020E00E94A505202F05E0D1
:101C100010E00E94BD121BE020E00E94A505202FCD
:101C200010E00E94D5121CE020E00E94A505202FA4
:101C300010E00E94D5121DE020E00E94A505202F93
:101C400011E00E94D5121EE020E00E94A505202F81
:101C500009E010E00E94BD121FE020E00E94A505EF
:101C6000202F10E00E94D51210E120E00E94A5056F
:101C7000202F10E00E94D51211E120E00E94A5055E
:101C8000202F10E00E94D51212E120E00E94A5054D
:101C9000202F10E00E94D51213E120E00E94A5053C
:101CA000202F11E00E94D51214E120E00E94A5052A
:101CB000202F0FE010E00E94BD1215E120E00E94ED
:101CC000A505202F10E00E94D51216E120E00E9409
:101CD000A505202F10E00E94D51217E120E00E94F8
:101CE000A505202F11E00E94D51200E000939F036C
:101CF00000E00093A0030093A10300E000936A04B6
:101D00002F911F910F9108950E9472050E948B0ED2
:101D10000E94830508950F931F932F93AF93BF9352
:101D20000091A103003011F00C94160F00E0009315
:101D3000E2030093E303A4EEB3E001E40D9303E4B4
:101D40000D9300E50D930AE30D9300E10D9302E07E
:101D50000D93A8E2B4E001E40D9303E40D9300E5D4
:101D60000D930AE30D9300E10D9303E00D9300E062
:101D70000093690418E120E00E94A505202F04E0EB
:101D800014E00E94941219E120E00E94A505202F82
:101D900005E014E00E94941200E014E021E00E94AB
:101DA000941201E00093A0031AE120E00E94A5052F
:101DB000202F04E015E00E9494121BE120E00E9415
:101DC000A505202F05E015E00E94941200E015E023
:101DD00021E00E94941201E00093A10306E110E0CB
:101DE00023E00E94941201E014E021E00E9494128A
:101DF00002E00093A00301E015E021E00E949412AC
:101E000002E00093A10301E014E022E00E9494129A
:101E100003E00093A00301E015E022E00E94941289
:101E200003E00093A10301E000939F03BF91AF91F2
:101E30002F911F910F9108950E9472050F931F9388
:101E40002F930091A003003031F40091A1030030E2
:101E500011F40C945E0F06E110E020E00E94941251
:101E60000091A003013081F0093071F0043038F0A6
:101E700001E014E028E00E9494120C94440F01E069
:101E800014E020E10E94941200E00093A00300916E
:101E9000A1030130C9F30930B9F3043038F001E08F
:101EA00015E028E00E9494120C945B0F01E015E00D
:101EB00020E10E94941200E00093A10300E000934F
:101EC0009F032F911F910F910E94830508950E94F7
:101ED0001C0F0E94840E08950E94720500919F03BA
:101EE0000E948305033011F000E001C001E0089575
:101EF0001F932F933F934F935F936F937F938F9392
:101F0000AF93BF930E9472050091A0030E948305C6
:101F1000063019F000E00C94EB0F00E214E00E9490
:101F20002E12422F03950E942E12322F403031F490
:101F300000E4031718F400E00C94EB0F04E214E043
:101F40000E942E12622F2F9303950E942E12522F61
:101F50002F935F7F6770A4EEB3E0052F162F20E468
:101F6000020F20E0121F183028F031F4003010F07A
:101F700009F002C00C94BE0F0C94BE0F00E010E4F8
:101F8000050F161F70E480E02D910E9494120395B6
:101F900020E0121F7A95C1F7803019F08A950C94D1
:101FA000C40F3F912F9100E4300F00E0201F04E2A6
:101FB00014E00E949412232F03950E9494120E9411
:101FC000720507E00093A00301E014E020E20E9404
:101FD00094120E948305BF91AF918F917F916F9171
:101FE0005F914F913F912F911F9108951F932F93D0
:101FF0003F934F935F936F937F938F93AF93BF9371
:102000000E9472050091A103043029F00E9483050B
:1020100000E00C94721008E00093A10302E000932A
:1020200069040E94830500E215E00E942E12422FEF
:1020300003950E942E12322F403031F400E4031732
:1020400018F400E00C94721004E215E00E942E12C5
:10205000622F2F9303950E942E12522F2F935F7F92
:102060006770A8E2B4E0052F162F20E4020F20E0ED
:10207000121F183028F031F4003010F009F002C0BF
:102080000C9444100C94441000E018E4050F161F43
:1020900070E480E02D910E949412039520E0121FBD
:1020A0007A95C1F7803019F08A950C944A103F91C7
:1020B0002F9100E4300F00E0201F04E215E00E94A1
:1020C0009412232F03950E9494120E94720500E03F
:1020D0000093690401E015E020E20E9494120E943E
:1020E000830501E0BF91AF918F917F916F915F91D7
:1020F0004F913F912F911F9108950E9472050F9368
:102100001F932F9305E110E00E942E122F93217050
:1021100011F40C94E21002E014E00E942E120091DF
:10212000A003213051F0223061F02430A1F028309A
:10213000C1F02031E1F00C94D8100330E1F00C94A0
:10214000D8100430F9F00530E9F00630D9F0073046
:10215000C9F00C94D8100430D9F00530C9F00C94B3
:10216000D8100530D9F00730C9F00C94D8100730DA
:10217000D9F00C94D8102F9300E00E9430112F91C9
:102180000C94D8102F930E9443112F910C94D810C7
:102190002F930E9447112F910C94D8102F930E94D7
:1021A000C4112F910C94D8102F930E94F1112F91EC
:1021B00002E014E00E9494122F912F93227011F4E8
:1021C0000C94231102E015E00E942E120091A1034D
:1021D000213051F0223061F0243081F0283081F03C
:1021E000203191F00C941F11033091F00C941F11C9
:1021F0000430A9F0083099F00C941F110C941F11B1
:10220000083099F00C941F110830A9F00C941F119C
:102210002F9301E00E9430112F910C941F112F93E6
:102220000E9443112F910C941F112F930E94C411EF
:102230002F910C941F112F930E94F8112F9102E0FF
:1022400015E00E9494122F912C7E21F005E110E000
:102250000E9494122F911F910F910E94830518954F
:1022600014E0013031F01093A0030091A1030C940D
:102270003D111093A1030091A003043019F402E072
:1022800000939F03089503E000939F0308953F93F5
:102290004F935F936F937F938F93AF93BF9306E2B8
:1022A00014E00E942E12422F03950E942E12322F0C
:1022B00003950E942E12622F2F9303950E942E12D7
:1022C000522F2F935F7F6770A2EAB3E00091E20381
:1022D000A00F00E0B01F052F162F030F141F18309A
:1022E00028F031F4003010F009F002C00C947A119B
:1022F0000C947A1100E010E6050F161F732F842F3F
:102300000E942E122D93039520E0121F7A95C1F79B
:10231000803019F08A950C9480116F915F91630F52
:1023200000E0501F303419F000000C9498110000A8
:1023300008E214E0252F0E949412262F03950E9494
:10234000941201E014E020E40E9494120091E20350
:10235000030F003459F400E00093E20306E0009319
:10236000A00301E00093E3030C94BB113093E2035C
:1023700005E00093A003BF91AF918F917F916F9182
:102380005F914F913F9108950F931F932F930130C9
:1023900049F40091A103083029F400916A040395DF
:1023A00000936A040091A003003041F001E014E0C2
:1023B00020E10E94941200E00093A0030091A10389
:1023C000003041F001E015E020E10E94941200E0AD
:1023D0000093A10303E000939F032F911F910F919E
:1023E000089500E00093E30304E00093A003089540
:1023F00004E00093A10308950F930E9472050CE37B
:10240000009305010CE100930501000000000000AD
:1024100000000CE30093050104E10E94F9120E9400
:10242000F9120E94F9120E94F9120E94F9120FEF9C
:102430000093010101E0009302010CE30093050108
:1024400008E20093050100000CE30093050100E0A1
:10245000009301010E9483050F9108952FEF2093AF
:102460000101109302012DE32093050129E220933D
:10247000050100002DE3009302012EE320930501E6
:102480002AE22093050100002EE320E020930101C1
:102490002FE32093050123E3209305010000209101
:1024A00000012F932FE3209305012F9108952FEF23
:1024B0002093010123E0209302012CE320930501E6
:1024C00028E22093050100002CE32093050120E081
:1024D000209301010E942E12089520E02093010113
:1024E0002FE32093050123E32093050100002091B1
:1024F00000012F932FE320930501003099F02FEF77
:102500002093010121E0209302012CE32093050197
:1025100028E22093050100002CE32093050120E030
:10252000209301012F9108953F933FEF30930101D4
:10253000109302013DE33093050139E23093050128
:1025400000003DE3009302013EE3309305013AE2CF
:102550003093050100003EE3209302013FE33093F6
:1025600005013BE23093050100003FE33093050194
:1025700030E0309301013F9108952F932FEF209386
:10258000010123E0209302012CE32093050128E2BE
:102590002093050100002CE32093050120E0209307
:1025A00001012F910E94941208952F932FEF2093F1
:1025B0000101009302012FE3209305012BE22093F8
:1025C000050100002FE320930501103081F021E088
:1025D000209302012CE32093050128E220930501BA
:1025E00000002CE32093050120E0209301012F91AE
:1025F00008950F931F9314E60000000000000000F0
:102600000000000000001A95B9F70A95A1F71F9184
:102610000F9108950F931F932F93AF93BF930E9431
:10262000720500919F03023021F00E9483050C94F3
:102630003E140091E3030E948305013011F00C94D5
:102640003E1402E00E9472050093E3030E9483059A
:10265000A2EAB3E00D910134B1F40D91033499F481
:102660000D91003581F40D910A3369F40D9100311B
:1026700071F40D91013079F40D910C3080F000E08F
:1026800014E00C942D1400E011E00C942D1400E0E3
:1026900012E00C942D1400E013E00C942D141D9105
:1026A0002D91F3E1E8E5000FE01F08F4F39509949C
:1026B0000C9470130C9487130C949E130C94B71302
:1026C0000C94D0130C94E9130C9402140C9402147F
:1026D0000C9402140C9402140C9406140C940A1416
:1026E0000E947205009124040E9483050F3F59F453
:1026F0000E94720500E0009324040E94830501E01B
:1027000010E00C942D1400E015E00C942D140E94A0
:102710007205009124040E9483050F3F59F40E9422
:10272000720501E0009324040E94830501E010E09B
:102730000C942D1400E015E00C942D140E947205E9
:10274000009124040E9483050F3F69F40E947205E2
:1027500002E000932404109325040E94830501E005
:1027600010E00C942D1400E015E00C942D140E9440
:102770007205009124040E9483050F3F69F40E94B2
:10278000720503E000932404109325040E9483053E
:1027900001E010E00C942D1400E015E00C942D14D1
:1027A0000E947205009124040E9483050F3F69F482
:1027B0000E94720504E000932404109325040E94F3
:1027C000830501E010E00C942D1400E015E00C945A
:1027D0002D140E947205009124040E9483050F3F6E
:1027E00069F40E94720505E0009324041093250407
:1027F0000E94830501E010E00C942D1400E015E028
:102800000C942D1400E014E00C942D1401E010E061
:102810000C942D14113069F400910302013049F039
:1028200001E00093030200911E02006200931E0269
:102830000DBBA2EAB3E008E0A00F00E0B01FC4E0C7
:10284000D2E014E10D9109931A95E1F711E00E948D
:10285000720A01E010E00C942D14A4EEB3E026E01F
:10286000A20F20E0B21F0D931C930E94780FA2EAE2
:10287000B3E010E400E00D931A95E9F7BF91AF9132
:102880002F911F910F910895AF93BF93EF93FF93F3
:102890000E94720570919F03723029F00E94830597
:1028A00000E00C94B31470916904703061F0ABE6F1
:1028B000B4E0A00F70E0B71F71E07C930E94830525
:1028C00000E00C94B31471E0709369040E948305D6
:1028D000F4E1E8E70F93000FE01F0F9108F4F39580
:1028E000A8E2B4E076E0A70F70E0B71F0D9309945B
:1028F0000C9484140C948F140C9494140C949914C8
:102900000C949E140C94A014009119020D93009144
:102910001A020D9300911D020D930C94A8140091BE
:102920001D020D930C94A81400911A020D930C949F
:10293000A814009119020D930C94A8140C94A814D7
:10294000009136030D93009137030D930C94A81456
:102950000E94F60F013039F00E94720570E070930A
:1029600069040E948305FF91EF91BF91AF91089593
:102970001F932F93AF93BF930E94720500919F0303
:102980000E948305023019F010E00C94F414ABE6B9
:10299000B4E020917104A20F10E0B11F0C9101303E
:1029A00081F4022F0E94441411E00130E9F400E0A8
:1029B0000C932395263009F420E0209371040C94A5
:1029C000F4141395163019F410E00C94F4142395B4
:1029D000263029F0A39500E0B01F0C94CE14ABE68E
:1029E000B4E020E00C94CE14012FBF91AF912F9151
:1029F0001F9108950E9472050F9300917804013091
:102A000021F001E00093780404C00F910E94830537
:102A100008950E94830500917704003031F0013061
:102A2000C9F0023029F10C947215009175040395D8
:102A30000E3121F0009375040C9472151F930091D0
:102A400076040E947B15012F1F910130A9F501E04A
:102A5000009377041F93009176040E948715012F3D
:102A60001F910130F9F502E0009377040C94721580
:102A70001F932F933F93009176040E948F1511307E
:102A800021F03F912F911F9117C0303009F020E0C5
:102A9000003019F41091790402C010917A042117C2
:102AA000A1F0003019F42093790402C020937A0435
:102AB00038E00E94720A09C004E0009377043F9353
:102AC00038E00E94720A3F910DC011E00127009387
:102AD000760410E01093750410E0109377043F9192
:102AE0002F911F910E94720500E0009378040E94CC
:102AF00083050F9108950E94A315113039F41CEC41
:102B00000E94D41514E40E94D41511E008950E9487
:102B100001161F3F11F411E0089510E008950E947E
:102B2000A315113079F41CEC0E94D4151EEB0E9401
:102B3000D4150E940116212F0E940116312F0E94E8
:102B4000A31511E008952F933F930E94720530B3AF
:102B5000003021F48998819A0C94B0158898809A55
:102B600020E20E9486162A95E1F730BB0E94861665
:102B700026E00E9486163FB1003019F4327041F011
:102B800003C0317029F000C02A9599F710E007C002
:102B900011E039E1230F0E9486162A95E1F70E9481
:102BA00083053F912F9108952F93212F10E020FD51
:102BB00013950E94261610E021FD13950E942616FB
:102BC00010E022FD13950E94261610E023FD1395B8
:102BD0000E94261610E024FD13950E94261610E090
:102BE00025FD13950E94261610E026FD13950E94E0
:102BF000261610E027FD13950E942616122F2F91FE
:102C000008952F9320E00E94541610FD21600E9429
:102C1000541610FD22600E94541610FD24600E947C
:102C2000541610FD28600E94541610FD20610E9469
:102C3000541610FD20620E94541610FD20640E945C
:102C4000541610FD2068122F2F9108952F933F9353
:102C50000E94720530B3003021F48998819A0C9457
:102C600033168898809A103059F40E9486160E9474
:102C700086160E9486160E94861630BB0C944D164E
:102C80000E947E1630BB0E947E160E947E160E9415
:102C900086160E9486160E9486160E947E160E9444
:102CA00083053F912F9108952F933F930E947205C2
:102CB00030B3003021F48998819A0C946116889879
:102CC000809A0E947E1630BB0E947E162FB1003083
:102CD00019F4227029F002C0217011F011E001C036
:102CE00010E00E9486160E9486160E9486160E9498
:102CF00086160E9483053F912F9108950F9308E057
:102D0000000000000A95E1F70F9108950F930CE180
:0C2D1000000000000A95E1F70F91089503
:00000001FF
