:020000020000FC
:100000000C9485030C9472000C9472000C94720092
:100010000C9472000C949F100C94B6020C94720213
:100020000C9496020C9472000C9472000C94720062
:100030000C9472000C944C010C9472000C9472009D
:100040000C9472000C9435030C9472000C947200A2
:100050000C9472000C9473000C9472000C94720057
:100060000C9472000C9472000C9472000C94720048
:100070000C9472000C9472000C9472000C94720038
:100080000C9472000C9472000C9472000C94720028
:100090000C9472000C9472000C9472000C94720018
:1000A0000C9472000C9472000C9472000C94720008
:1000B0000C9472000C9472000C9472000C947200F8
:1000C0000C9472000C9472000C9472000C947200E8
:1000D0000C9472000C9472000C9472000C947200D8
:1000E0000C94720018950F930FB70F931F932F93D3
:1000F00000910202013011F40C9491000E949405C9
:1001000000914003003039F0002700934003009134
:100110003F03009341030E94BB040E94A5050C9479
:10012000D70000910302003079F00E9494050091FD
:100130004003003039F000270093400300913F0353
:10014000009341030E94A5050E948E0F0130C1F467
:1001500000911902003019F000E00E943A0D00E011
:100160000E94940500936C040E94A5050E94890FCB
:100170000E9494050E94BB040E94A5050C94D70020
:100180000E942C130E9494050E94BB040E94A505A6
:100190000E94DA14013059F0009174040395053877
:1001A00021F400E00E94661400E0009374040091C2
:1001B00076040395023319F40E941C1500E00093A5
:1001C00076040E94940500913B03003049F40091AD
:1001D0003C03003059F00A9500933C03003019F4B9
:1001E0000A950C94F4000FEF00933B0300913D033C
:1001F000003049F400913E03003059F00A95009315
:100200003E03003019F40A950C9407010FEF009398
:100210003D030E94A5052F911F910F910FBF0F91D4
:1002200018950F930FB70F931F932F93009178009A
:100230002091790006950695220F220F220F220F9A
:10024000220F220F202B0091450310914603020F2D
:1002500020E0121F209144032395243089F421309B
:1002600041F088941795079588942795213009F0D7
:10027000F8CF889407950093480300E010E020E051
:100280000093450310934603209344032F911F913D
:100290000F910FBF0F9118950F930FB70F931F93E7
:1002A0002F933F934F930E949405009170000F93FA
:1002B00000E0009370000E94A5050E949405209123
:1002C0004703203019F40E94A5052FC00091200299
:1002D000039510912102011728F40E94A5050093AF
:1002E000200226C000E0009347030E94A5052030AD
:1002F00054F00FE710911D02011B201710F02FE79B
:100300000CC0210F0AC000911D02122F1195101769
:1003100010F020E002C0202F211B10911D021217A7
:1003200021F020931D020E94D30B00E000932002D5
:100330000E94940500914103309142031FEF1093F6
:1003400041030E94A50510913403209132030F3F11
:10035000D9F41F3F11F40C944C02313061F4239511
:1003600020933203203039F040913303439540937A
:1003700033030C944C020093340300E000933303E6
:10038000009332030C944C02011711F4239503C01F
:100390000093340320E02093320340E0203029F022
:1003A000303019F040913303439540933303F3E029
:1003B000E1E6E00F0027F01F0081003049F40E94C1
:1003C0007B05103011F40C94630200E00C943B02A6
:1003D000013049F40E947505103011F40C94630249
:1003E00001E00C943B02023051F40E946A05103087
:1003F00011F40C94630202E021E00C943B02033000
:1004000051F40E946A05103011F40C94630202E06A
:100410002FEF0C943B02043051F40E946A05103017
:1004200011F40C94630204E021E00C943B020530CB
:1004300051F40E946A05103011F40C94630204E038
:100440002FEF0C943B02063051F40E946A051030E5
:1004500011F40C94630205E02FEF0C943B0207307B
:10046000D9F40E946A05103011F40C94630205E07F
:1004700021E00C943B0210910302103021F40E9401
:100480003A0D0C946302009336032093370305E082
:100490000E9466140C9463020E9494050091260445
:1004A0000F3F0E94A50579F0209127043091280480
:1004B000409129040E9494051FEF109326040E9486
:1004C000A5050E943A0D0E9494050F9100937000BB
:1004D0000E94A5054F913F912F911F910F910FBF42
:1004E0000F9118950F930FB70F930E9494050091E9
:1004F0003B030030A9F400913C03003089F40FEF76
:1005000000933B0300933D0304E000933C030093FE
:100510003E030E94A50500E00E943A0D0C94920251
:100520000E94A5050F910FBF0F9118950F930FB75C
:100530000F930E94940500913D03003089F40091CF
:100540003E03003069F40FEF00933D0304E0009395
:100550003E030E94A50501E00E943A0D0C94B202F0
:100560000E94A5050F910FBF0F9118950E94940549
:100570000F930FB70F931F932F9300E00DBB0093C2
:100580006E00009370000093590300935A03009388
:100590005B0300915C030F3F61F000E0009381007A
:1005A00002E000936E0002E0009370000FEF0093F2
:1005B0005C0300E000935E0314E110935D0300937D
:1005C00085000093840011E004EF109389000093EC
:1005D000880009E00093810002E000936F000E9410
:1005E000A5050E94A10C0E94940510E010936E00D6
:1005F000109370001093810027E210E1209389008E
:100600001093880010E010935E0311E010935D03D7
:1006100019E010938100003071F01FEF10935C031C
:1006200002E000936E0002E00093700002E000938D
:100630006F0000EC11C01FEF10935B0310E01093EC
:100640005C0302E000936E0002E00093700002E0A1
:1006500000936F0000911E020DBB2F911F910F910F
:100660000FBF0F910E94A50518950E9494050F9346
:100670000FB70F931F9310915D031431B1F40091E4
:10068000590303950093590300915E03039500936A
:100690005E03011799F500915B03039500935B03DB
:1006A00000E000935E030C947E0300915B030F3F18
:1006B00079F0039500935B03093100F10FEF00938C
:1006C0005B0300E000935C0300911E020DBB16C0AB
:1006D00000915C03039500935C03043678F000E01E
:1006E0000093810002E000936E0002E0009370002E
:1006F00000E0009342030FEF00935C031F910F9102
:100700000FBF0F910E94A505189501E20EBF0FEFD4
:100710000DBF00E010E810936100009361000FEF3F
:1007200001B90FEF04B900EC07B900EE0AB90FE008
:100730000DB900E00093100007E003BB00E0009358
:1007400001010FE3009304010FEF009307010FEF86
:1007500000930A0100E0009300020093010200E010
:100760000093190200E000931A0200E000931C02BB
:1007700000E000931B0202E004BD05E005BD0AE0B5
:1007800007BD02E00093B00007E00093B10008EC61
:100790000093B30039B13F71132F117029F410EE9B
:1007A00010931E0210E004C010ED10931E0211E021
:1007B00010930202132F127011F4132F08C010E0CF
:1007C00020E00E94C705000F000F132F102B10937D
:1007D00018021695169514BB00E0009303020093CF
:1007E00004020AEA00936A0000911E020DBB02E0B7
:1007F00000936E0002E00093700000E000933B0362
:1008000000933C0300933D0300933E0300910202DA
:10081000013011F40E94F00D11E020E00E94C705A4
:1008200000931D021FEF10935F0310933F0310E02E
:100830001093400310E01093600310E010935B03EB
:100840001FEF10935C03F3E0E1E60FEF10E001937C
:1008500013951034E0F3F3E0E1E610E0148711E0C3
:10086000158712E0108B13E0118B14E0128B15E04A
:10087000138B16E0148F17E0158FEDE6F4E010E00F
:1008800000E0019313951630E0F300937304009396
:10089000740410E01093380301E00093390302E080
:1008A00000934303109344031093450310934603AE
:1008B00010934803109347031093320310933303AC
:1008C0000FEF00934103009334030093260400E0EC
:1008D00000937604009377040093780400937B04DC
:1008E00000937C0400937A0400E00093790412E002
:1008F00020E00E94C7050093240213E020E00E943C
:10090000C7050093250214E020E00E94C70500936C
:1009100026020E946E0715E020E00E94C7050093A2
:1009200027020E9468070E944E070E94E2060E946A
:10093000960600E0009378020093C9020093CA0271
:100940000093CB0200E00093220200E000937504C4
:100950000E94D30B3FE00E94940A01E00093000242
:10096000789400910202013011F40E94A60E00005A
:1009700000000000FCCF0F931F932F933F9330E0B4
:1009800006B1102F147011F410E006C0102F18706B
:1009900011F410E001C011E020911A0210931A0224
:1009A000121709F03AE0102F117011F50091190299
:1009B000023091F400911D0211E020E00E94BF0579
:1009C0000091260214E020E00E94BF05009127025A
:1009D00015E020E00E94BF05003039F110E01093CF
:1009E00019023AE010E010931C0210E01EB91DC07D
:1009F000102F1072B1F4009119020130B1F412E01D
:100A0000109319023AE01FE01EB900000000000038
:100A10000000000006B10870C1F701E000931C025D
:100A200004C011E0109319023AE000911B021091EA
:100A30001902003031F4123059F40E941C0C11E0FC
:100A400005C0123029F00E941F0C10E010931B0209
:100A500006B110911C02113089F4102F187041F169
:100A600012E010931C0210911902123009F5102F98
:100A70001270F1F401E00E94E60D1AC0123081F408
:100A8000102F1071A9F413E010931C0200E00E94D3
:100A9000E60D10E01EB910E0109319023AE008C00C
:100AA000133031F4102F107119F010E010931C0264
:100AB0000091750410911D02011719F03460109314
:100AC0007504303011F00E94940A3F912F911F91CC
:100AD0000F910895203029F02A3028F01127109323
:100AE000320311E001C010E00895403011F010E031
:100AF00001C011E00895403071F04E3140F0109186
:100B00003503113041F011E01093350306C010E0B9
:100B10001093350302C010E000C00895312E312E2D
:100B20003020524336202000F8940F930FB70F93D4
:100B300000910002013029F4009101020395009315
:100B400001020F910FBF0F910895F8940F930FB703
:100B50000F9300910002013071F400910102003006
:100B600029F00A9500930102003029F40F910FBF7C
:100B70000F91789408950F910FBF0F910895F999EF
:100B8000FECF22BD11BD00BDFA9AF99A0895F999D8
:100B9000FECF22BD11BDF89A00B508950E949405BC
:100BA0000F930091C902003039F001E00093CA02AE
:100BB0000F910E94A505089501E00093C9020E94CB
:100BC000A5051F932F933F934F935F936F93CF93FD
:100BD000DF93EF93FF930E949405E8E2F2E0C9E708
:100BE000D2E01091780220E031E01F9313231F918F
:100BF00019F47496649605C044E1019109934A95ED
:100C0000E1F72395330F243009F0EFCF00917802FC
:100C10001091CB02102B1093CB0200E000937802CE
:100C20000093CA020E94A50520E031E0E9E7F2E066
:100C3000CCECD2E00091CA02003069F61F93132376
:100C40001F9119F47496649623C05FEF6FEF40E034
:100C500001917881071729F4219643954431C1F712
:100C600011C05F3F21F06F3F11F0541721F0542F56
:100C7000622F0E94FE060E94180709935395439520
:100C8000443131F70FEF3027132330271093CB0275
:100C90002395243011F0330FCDCF0E94940500919D
:100CA000CA02003019F00E94A50595CF103019F046
:100CB0000E94A505B9CF00E00093C902FF91EF9112
:100CC000DF91CF916F915F914F913F912F911F9144
:100CD0000F910E94A50508950F93CF93DF93C8E26B
:100CE000D2E0203019F064962A95FCCF24E1FF0F62
:100CF000EE0F08F4F395059109932A95E1F7DF913A
:100D0000CF910F9108950F93CF93DF93C8E2D2E074
:100D1000203019F064962A95FCCF24E101910993C3
:100D20002A95E1F7DF91CF910F9108950F931F93CB
:100D30002F93CF93DF93CCECD2E000E014E024E1DA
:100D400009932A95E9F71A95D1F7DF91CF912F9161
:100D50001F910F9108950F9300912202003009F422
:100D600009C0013019F40E941A0B04C0023011F4BA
:100D70000E944A0B0F910895CF93DF93C8E2D2E00F
:100D8000203019F064962A95FCCFC10F08F4D39552
:100D9000259129930A95E1F7DF91CF910895CF939B
:100DA000DF93C8E2D2E0203019F064962A95FCCF98
:100DB000C10F08F4D395219129930A95E1F7DF91AA
:100DC000CF9108950F9300910B01087F00930B01C1
:100DD00000E0009308010CE30E942E070CE00E9443
:100DE0002E0706E00E942E0701E00E942E0708E26F
:100DF0000E9441070A95E1F70F9108950F931F9301
:100E0000603011F410E00BC0613011F410E407C041
:100E1000623011F414E103C0633039F414E5150FA6
:100E20000FE7012300680E942E071F910F9108957C
:100E30001F930093080110910B01116010930B0197
:100E4000156010930B010E94410710910B011A7F4E
:100E500010930B010E9441071F9108951F93009367
:100E6000080110910B01146010930B010E944107BF
:100E700010910B011B7F10930B010E9441071F91E2
:100E800008950F930BE40000000000000000000034
:100E9000000000000A95B9F70F9108951F93109173
:100EA0000B01106810930B010F9306E01AEF0E94DC
:100EB00041071A95E1F70A95C9F70F911F91089517
:100EC0001F9310910B011F7710930B011F91089531
:100ED0001F9310E00E9474071F9108951F9311E063
:100EE0000E9474071F9108952F933F934F9320E022
:100EF0005D98312F330F330F330F330F330F330F11
:100F000042E0330F08F45E9A5F9A00005F98000099
:100F10005E984A95B1F7302F48E0330F08F45E9A97
:100F20005F9A00005F9800005E984A95B1F75D9A5D
:100F30004F913F912F9108952053494E474C4520A2
:100F40004348414E4E454C20414D50202A2A2A2AE2
:100F50002020534C454550494E4720202A2A2A2A12
:100F60002A2A2A2A2020504F574552494E472020EE
:100F70002A2A2A2A2A2A2A2A2020204D5554454442
:100F80002020202A2A2A2A202A2A2A2A2020504CB5
:100F90004159494E4720202A2A2A2A20566F6C752B
:100FA0006D653A20787878202F2031323720202044
:100FB00056657273696F6E3A2078787878787878A9
:100FC0007878787854656D702E3A204C3D78782E7C
:100FD0007820523D78782E7854656D702E3A202016
:100FE0002A2A204572726F72202A2A204C454654C4
:100FF000204348414E4E454C204F464653455420D1
:101000004D6F64653A20454449542020202020201B
:101010002020202043757272656E743A20787878AB
:101020002E787820644220204E65773A20202020B8
:10103000207878782E7878206442202052494748DA
:1010400054204348414E4E454C204F46465345544C
:101050004D6F64653A2045444954202020202020CB
:101060002020202043757272656E743A207878785B
:101070002E787820644220204E65773A2020202068
:10108000207878782E7878206442202030303030F4
:101090003031303032303033303034303035303041
:1010A000363030373030383030393031303031311F
:1010B0003031323031333031343031353031363017
:1010C00031373031383031393032303032313032FE
:1010D00032303233303234303235303236303237EB
:1010E00030323830323930333030333130333230DF
:1010F00033333033343033353033363033373033C5
:1011000038303339303430303431303432303433B5
:10111000303434303435303436303437303438309D
:101120003439303530303531303532303533303593
:10113000343035353035363035373035383035396F
:101140003036303036313036323036333036343077
:101150003635303636303637303638303639303747
:10116000303037313037323037333037343037354D
:10117000303736303737303738303739303830302D
:101180003831303832303833303834303835303820
:101190003630383730383830383930393030393106
:1011A00030393230393330393430393530393630FE
:1011B00039373039383039393130303130313130F8
:1011C00032313033313034313035313036313037FF
:1011D00031303831303931313031313131313231F2
:1011E00031333131343131353131363131373131DB
:1011F00038313139313230313231313232313233CA
:101200003132343132353132363132372D2D2D2DC8
:1012100030302E3530312E3030312E3530322E30C8
:1012200030322E3530332E3030332E3530342E30B0
:1012300030342E3530352E3030352E3530362E3098
:1012400030362E3530372E3030372E3530382E3080
:1012500030382E3530392E3030392E3531302E3071
:1012600031302E3531312E3031312E3531322E3074
:1012700031322E3531332E3031332E3531342E305C
:1012800031342E3531352E3031352E3531362E3044
:1012900031362E3531372E3031372E3531382E302C
:1012A00031382E3531392E3031392E3532302E301D
:1012B00032302E3532312E3032312E3532322E3020
:1012C00032322E3532332E3032332E3532342E3008
:1012D00032342E3532352E3032352E3532362E30F0
:1012E00032362E3532372E3032372E3532382E30D8
:1012F00032382E3532392E3032392E3533302E30C9
:1013000033302E3533312E3033312E3533322E30CB
:1013100033322E3533332E3033332E3533342E30B3
:1013200033342E3533352E3033352E3533362E309B
:1013300033362E3533372E3033372E3533382E3083
:1013400033382E3533392E3033392E3534302E3074
:1013500034302E3534312E3034312E3534322E3077
:1013600034322E3534332E3034332E3534342E305F
:1013700034342E3534352E3034352E3534362E3047
:1013800034362E3534372E3034372E3534382E302F
:1013900034382E3534392E3034392E3535302E3020
:1013A00035302E3535312E3035312E3535322E3023
:1013B00035322E3535332E3035332E3535342E300B
:1013C00035342E3535352E3035352E3535362E30F3
:1013D00035362E3535372E3035372E3535382E30DB
:1013E00035382E3535392E3035392E3536302E30CC
:1013F00036302E3536312E3036312E3536322E30CF
:1014000036322E3536332E3036332E3536342E30B6
:1014100036342E3536352E3036352E3536362E309E
:1014200036362E3536372E3036372E3536382E3086
:1014300036382E3536392E3036392E3537302E3077
:1014400037302E3537312E3037312E3537322E307A
:1014500037322E3537332E3037332E3537342E3062
:1014600037342E3537352E3037352E3537362E304A
:1014700037362E3537372E3037372E3537382E3032
:1014800037382E3537392E3037392E3538302E3023
:1014900038302E3538312E3038312E3538322E3026
:1014A00038322E3538332E3038332E3538342E300E
:1014B00038342E3538352E3038352E3538362E30F6
:1014C00038362E3538372E3038372E3538382E30DE
:1014D00038382E3538392E3038392E3539302E30CF
:1014E00039302E3539312E3039312E3539322E30D2
:1014F00039322E3539332E3039332E3539342E30BA
:1015000039352E3539362E3039362E3539372E309D
:1015100039372E3539382E3039382E3539392E3085
:1015200039392E353130302BEF93FF930F931F93C2
:101530002F93032F017081F000910402003039F0E5
:10154000E4E0F2E020E00E9483060C94AC0AECE9AF
:10155000F7E020E00E946C06032F0270D9F00091A2
:101560001902023051F0003021F4E6EAF7E00C9461
:10157000C70AE0EBF7E00C94C70A00911A020030AA
:1015800021F4EAEBF7E00C94C70AE4ECF7E021E081
:101590000E946C06032F047059F0EEECF7E022E095
:1015A0000E946C060E947A0B18E022E00E94BC06A2
:1015B000032F0870A9F1009119020030A1F4E8EDA1
:1015C000F7E023E00E946C0604E119E0011B19E03A
:1015D00023E0EEE8F5E0FF0FEE0F08F4F3950E942C
:1015E000BC060C94100B009179040430A1F0E2EEDB
:1015F000F7E023E00E946C0600E00E94B80B19E0BF
:1016000023E00E94BC0601E00E94B80B10E123E039
:101610000E94BC0605C0ECEEF7E023E00E946C06D9
:10162000309378020E94CE052F911F910F91FF9168
:10163000EF910895EF93FF930F93E6EFF7E020E02B
:101640000E946C06E0E0F8E021E00E946C06EAE00F
:10165000F8E022E00E946C06009124020E948D0BAB
:1016600019E022E00E94CF06E4E1F8E023E00E94C6
:101670006C06009123020E948D0B19E023E00E946A
:10168000CF060FE0009378020E94CE050F91FF91E4
:10169000EF910895EF93FF930F93EEE1F8E020E0D0
:1016A0000E946C06E8E2F8E021E00E946C06E2E3AA
:1016B000F8E022E00E946C06009125020E948D0B4A
:1016C00019E022E00E94CF06ECE3F8E023E00E945C
:1016D0006C06009123020E948D0B19E023E00E940A
:1016E000CF060FE0009378020E94CE050F91FF9184
:1016F000EF9108951F930F921F9210911D0203E026
:10170000019FE6E4F8E0FF0FEE0F08F4F395E00D1B
:10171000F11D1F900F901F9108951F932F930F920B
:101720001F92CF93DF93202F20300CF4219513E0EC
:10173000219FE6E4F8E0FF0FEE0F08F4F395E00DCB
:10174000F11DCCE1D3E01BE200300CF41DE2199353
:1017500013E0059109931A95E1F7ECE1F3E003E05A
:101760000395DF91CF911F900F902F911F910895B6
:101770001F930F921F92003019F410917C0402C045
:1017800010917B04173C08F016EC04E0019FE6E0A2
:10179000F9E0FF0FEE0F08F4F395E00DF11D1F9037
:1017A0000F901F9108950F931F932F9300911D0287
:1017B00010912202113019F41091230202C01091ED
:1017C000240210302CF0100F103850F01FE708C022
:1017D000212F2195201710F010E002C0102F121BAE
:1017E00022B1211731F00F93012F12E00E94880CD3
:1017F0000F9110912202123019F41091230202C0AD
:101800001091250210302CF0100F103850F01FE707
:1018100008C0212F2195201710F010E002C0102FD2
:10182000121B25B1211721F0012F15E00E94880C11
:101830002F911F910F910895179A2F9A0895179835
:101840002F98089516980E94940C15980E94940C55
:1018500014980E94940C13980E94940C12980E9461
:10186000940C11980E94940C10980E94940C089566
:101870002E980E94940C2D980E94940C2C980E94F3
:10188000940C2B980E94940C2A980E94940C2998EE
:101890000E94940C28980E94940C089500FD109AC0
:1018A0000E94940C01FD119A0E94940C02FD129A60
:1018B0000E94940C03FD139A0E94940C04FD149A48
:1018C0000E94940C05FD159A0E94940C06FD169A30
:1018D0000E94940C089500FD289A0E94940C01FD2A
:1018E000299A0E94940C02FD2A9A0E94940C03FDEE
:1018F0002B9A0E94940C04FD2C9A0E94940C05FDD6
:101900002D9A0E94940C06FD2E9A0E94940C089524
:10191000153029F00E94220C0E944E0C04C00E9437
:10192000380C0E946B0C08950F9304E9000000002E
:10193000000000000000000000000A95B9F70F91B8
:1019400008953F934F935F936F937F9314E2110F2A
:1019500065990C94100D659906C000915903011703
:10196000D0F30C94100D659B06C00091590301172C
:10197000D0F30C94100D0091590300935A038894EE
:10198000202F0695200F102F0695100F0E94170D7F
:101990003F3F11F40C94100D71E000915F030317A9
:1019A00009F470E0552765E00E94170D3F3FC1F133
:1019B000889430FD0894551F6A95B1F70091600333
:1019C000051719F00EEF0C94110D703079F40E9488
:1019D00094050091400303950093400301E00093B8
:1019E00042030E94A50501E00C94110D552766E005
:1019F0000E94170D3F3FA1F0889430FD0894551FB9
:101A00006A95B1F70E94940550933F0301E000935B
:101A1000400301E0009342030E94A505002701C096
:101A20000FEF7F916F915F914F913F910895002744
:101A300000935903009159030117E0F33CB1307250
:101A40004CB14072431731F4009159030217C0F3AF
:101A50003FEF0895332745FF31E008950C94420D80
:101A60000C946E0D0C947C0D0C949F0D0C94A00D99
:101A70000C94C30DFDE0EEE2000FE01F08F4F395B7
:101A8000099508950E9494051F932F9300911902C0
:101A90000030D1F006B10270B9F001E00E94E60D0D
:101AA0001FEF0FEF0000000000000000000000002A
:101AB0000000000000000000000000000000000026
:101AC0000A9581F71A9569F700E00E94E60D0E94D9
:101AD000BB042F911F910E94A50508950E949405B3
:101AE00000911902023029F401E00E94E60D0E94E3
:101AF000BB040E94A50508951F932F93203054F036
:101B00000FE710911D02011B201710F02FE70CC0EA
:101B1000210F0AC000911D02122F1195101710F00D
:101B200020E002C0202F211B10911D02121721F06E
:101B300020931D020E94D30B2F911F9108950895A9
:101B40001F932F93203054F00FEF10912702011BA9
:101B5000201710F02FEF0CC0210F0AC000912702B0
:101B6000122F1195101710F020E002C0202F211B1A
:101B700000912702021721F0209327020E94680794
:101B80002F911F9108951F932F93203054F00FEF42
:101B900010912602011B201710F02FEF0CC0210F0F
:101BA0000AC000912602122F1195101710F020E0A4
:101BB00002C0202F211B00912602021721F0209342
:101BC00026020E946E072F911F9108951F932F9355
:101BD000003011F4369A01C0379A2F911F91089561
:101BE0000F931F932F930E941E1207E110E027E02E
:101BF0000E94B612039520ED0E94B61209E110E092
:101C000028E00E94B61216E020E00E94C705202FAF
:101C100001E010E00E94DF1217E020E00E94C705FB
:101C2000202F10E00E94F71218E020E00E94C70564
:101C3000202F10E00E94F71219E020E00E94C70553
:101C4000202F11E00E94F7121AE020E00E94C70541
:101C5000202F05E010E00E94DF121BE020E00E9430
:101C6000C705202F10E00E94F7121CE020E00E9420
:101C7000C705202F10E00E94F7121DE020E00E940F
:101C8000C705202F11E00E94F7121EE020E00E94FD
:101C9000C705202F09E010E00E94DF121FE020E0BE
:101CA0000E94C705202F10E00E94F71210E120E0EB
:101CB0000E94C705202F10E00E94F71211E120E0DA
:101CC0000E94C705202F10E00E94F71212E120E0C9
:101CD0000E94C705202F10E00E94F71213E120E0B8
:101CE0000E94C705202F11E00E94F71214E120E0A6
:101CF0000E94C705202F0FE010E00E94DF1215E1BF
:101D000020E00E94C705202F10E00E94F71216E184
:101D100020E00E94C705202F10E00E94F71217E173
:101D200020E00E94C705202F11E00E94F71200E07A
:101D30000093A10300E00093A2030093A30300E03B
:101D400000936C042F911F910F9108950E949405A8
:101D50000E94AD0E0E94A50508950F931F932F9327
:101D6000AF93BF930091A303003011F00C94380F90
:101D700000E00093E4030093E503A6EEB3E001E482
:101D80000D9303E40D9300E50D930AE30D9300E139
:101D90000D9302E00D93AAE2B4E001E40D9303E495
:101DA0000D9300E50D930AE30D9300E10D9303E01D
:101DB0000D9300E000936B0418E120E00E94C7053A
:101DC000202F04E014E00E94B61219E120E00E94E6
:101DD000C705202F05E014E00E94B61200E014E0D1
:101DE00021E00E94B61201E00093A2031AE120E074
:101DF0000E94C705202F04E015E00E94B6121BE1E7
:101E000020E00E94C705202F05E015E00E94B612D1
:101E100000E015E021E00E94B61201E00093A30368
:101E200006E110E023E00E94B61201E014E021E098
:101E30000E94B61202E00093A20301E015E021E047
:101E40000E94B61202E00093A30301E014E022E036
:101E50000E94B61203E00093A20301E015E022E025
:101E60000E94B61203E00093A30301E00093A103D4
:101E7000BF91AF912F911F910F9108950E949405EA
:101E80000F931F932F930091A203003031F4009120
:101E9000A303003011F40C94800F06E110E020E061
:101EA0000E94B6120091A203013081F0093071F056
:101EB000043038F001E014E028E00E94B6120C94DF
:101EC000660F01E014E020E10E94B61200E00093EA
:101ED000A2030091A3030130C9F30930B9F3043020
:101EE00038F001E015E028E00E94B6120C947D0F56
:101EF00001E015E020E10E94B61200E00093A30388
:101F000000E00093A1032F911F910F910E94A5055E
:101F100008950E943E0F0E94A60E08950E94940507
:101F20000091A1030E94A505033011F000E001C05B
:101F300001E008951F932F933F934F935F936F9307
:101F40007F938F93AF93BF930E9494050091A20358
:101F50000E94A505063019F000E00C940D1000E277
:101F600014E00E945012422F03950E945012322F0B
:101F7000403031F400E4031718F400E00C940D1025
:101F800004E214E00E945012622F2F9303950E94E6
:101F90005012522F2F935F7F6770A6EEB3E0052F8C
:101FA000162F20E4020F20E0121F183028F031F421
:101FB000003010F009F002C00C94E00F0C94E00F18
:101FC00000E010E4050F161F70E480E02D910E94E0
:101FD000B612039520E0121F7A95C1F7803019F0F0
:101FE0008A950C94E60F3F912F9100E4300F00E0AA
:101FF000201F04E214E00E94B612232F03950E94D2
:10200000B6120E94940507E00093A20301E014E0D9
:1020100020E20E94B6120E94A505BF91AF918F9158
:102020007F916F915F914F913F912F911F910895F3
:102030001F932F933F934F935F936F937F938F9350
:10204000AF93BF930E9494050091A303043029F03D
:102050000E94A50500E00C94941008E00093A303EF
:1020600002E000936B040E94A50500E215E00E94C7
:102070005012422F03950E945012322F403031F4FB
:1020800000E4031718F400E00C94941004E215E047
:102090000E945012622F2F9303950E945012522FCC
:1020A0002F935F7F6770AAE2B4E0052F162F20E41C
:1020B000020F20E0121F183028F031F4003010F029
:1020C00009F002C00C9466100C94661000E018E44D
:1020D000050F161F70E480E02D910E94B612039543
:1020E00020E0121F7A95C1F7803019F08A950C9480
:1020F0006C103F912F9100E4300F00E0201F04E2AC
:1021000015E00E94B612232F03950E94B6120E947A
:10211000940500E000936B0401E015E020E20E94CA
:10212000B6120E94A50501E0BF91AF918F917F91FA
:102130006F915F914F913F912F911F9108950E9450
:1021400094050F931F932F9305E110E00E94501206
:102150002F93217011F40C94041102E014E00E94FA
:1021600050120091A203213051F0223061F024304E
:10217000A1F02830C1F02031E1F00C94FA100330C6
:10218000E1F00C94FA100430F9F00530E9F0063073
:10219000D9F00730C9F00C94FA100430D9F00530AA
:1021A000C9F00C94FA100530D9F00730C9F00C943E
:1021B000FA100730D9F00C94FA102F9300E00E9427
:1021C00052112F910C94FA102F930E9465112F91A8
:1021D0000C94FA102F930E9469112F910C94FA100D
:1021E0002F930E94E6112F910C94FA102F930E94C6
:1021F00013122F9102E014E00E94B6122F912F9338
:10220000227011F40C94451102E015E00E94501266
:102210000091A303213051F0223061F0243081F08D
:10222000283081F0203191F00C944111033091F06D
:102230000C9441110430A9F0083099F00C9441112C
:102240000C944111083099F00C9441110830A9F018
:102250000C9441112F9301E00E9452112F910C9484
:1022600041112F930E9465112F910C9441112F93CE
:102270000E94E6112F910C9441112F930E941A1283
:102280002F9102E015E00E94B6122F912C7E21F0D2
:1022900005E110E00E94B6122F911F910F910E944C
:1022A000A505189514E0013031F01093A2030091B8
:1022B000A3030C945F111093A3030091A2030430B5
:1022C00019F402E00093A103089503E00093A10331
:1022D00008953F934F935F936F937F938F93AF9343
:1022E000BF9306E214E00E945012422F03950E9411
:1022F0005012322F03950E945012622F2F93039594
:102300000E945012522F2F935F7F6770A4EAB3E0B0
:102310000091E403A00F00E0B01F052F162F030F5C
:10232000141F183028F031F4003010F009F002C00A
:102330000C949C110C949C1100E010E6050F161FE4
:10234000732F842F0E9450122D93039520E0121FAB
:102350007A95C1F7803019F08A950C94A2116F918B
:102360005F91630F00E0501F303419F000000C94AF
:10237000BA11000008E214E0252F0E94B612262FA1
:1023800003950E94B61201E014E020E40E94B61208
:102390000091E403030F003459F400E00093E403D8
:1023A00006E00093A20301E00093E5030C94DD1125
:1023B0003093E40305E00093A203BF91AF918F91A6
:1023C0007F916F915F914F913F9108950F931F936C
:1023D0002F93013049F40091A303083029F40091B0
:1023E0006C04039500936C040091A203003041F04B
:1023F00001E014E020E10E94B61200E00093A20385
:102400000091A303003041F001E015E020E10E94BB
:10241000B61200E00093A30303E00093A1032F9101
:102420001F910F91089500E00093E50304E00093ED
:10243000A203089504E00093A30308950F930E945C
:1024400094050CE3009305010CE1009305010000E5
:102450000000000000000CE30093050104E10E946D
:102460001B130E941B130E941B130E941B130E942C
:102470001B130FEF0093010101E0009302010CE335
:102480000093050108E20093050100000CE30093AE
:10249000050100E0009301010E94A5050F91089538
:1024A0002FEF20930101109302012DE320930501EA
:1024B00029E22093050100002DE3009302012EE3A1
:1024C000209305012AE22093050100002EE320E07D
:1024D000209301012FE32093050123E320930501BD
:1024E0000000209100012F932FE3209305012F91ED
:1024F00008952FEF2093010123E0209302012CE3A4
:102500002093050128E22093050100002CE320938D
:10251000050120E0209301010E945012089520E05F
:10252000209301012FE32093050123E3209305016C
:102530000000209100012F932FE32093050100302C
:1025400099F02FEF2093010121E0209302012CE369
:102550002093050128E22093050100002CE320933D
:10256000050120E0209301012F9108953F933FEF53
:1025700030930101109302013DE33093050139E2EC
:102580003093050100003DE3009302013EE33093E8
:1025900005013AE23093050100003EE32093020179
:1025A0003FE3309305013BE23093050100003FE338
:1025B0003093050130E0309301013F9108952F934E
:1025C0002FEF2093010123E0209302012CE32093BD
:1025D000050128E22093050100002CE3209305016A
:1025E00020E0209301012F910E94B61208952F93AD
:1025F0002FEF20930101009302012FE320930501A7
:102600002BE22093050100002FE3209305011030F9
:1026100081F021E0209302012CE32093050128E2C0
:102620002093050100002CE32093050120E0209376
:1026300001012F9108950F931F9314E600000000ED
:10264000000000000000000000001A95B9F70A958C
:10265000A1F71F910F9108950F931F932F93AF939D
:10266000BF930E9494050091A103023021F00E94C3
:10267000A5050C9460140091E5030E94A5050130A6
:1026800011F00C94601402E00E9494050093E5039D
:102690000E94A505A4EAB3E00D910134B1F40D91B7
:1026A000033499F40D91003581F40D910A3369F4E6
:1026B0000D91003171F40D91013079F40D910C30D0
:1026C00080F000E014E00C944F1400E011E00C9452
:1026D0004F1400E012E00C944F1400E013E00C944F
:1026E0004F141D912D91F3E1EAE7000FE01F08F46C
:1026F000F39509940C9492130C94A9130C94C013A1
:102700000C94D9130C94F2130C940B140C94241401
:102710000C9424140C9424140C9424140C94281455
:102720000C942C140E949405009126040E94A50587
:102730000F3F59F40E94940500E0009326040E9484
:10274000A50501E010E00C944F1400E015E00C9496
:102750004F140E949405009126040E94A5050F3F86
:1027600059F40E94940501E0009326040E94A505F7
:1027700001E010E00C944F1400E015E00C944F14AD
:102780000E949405009126040E94A5050F3F69F45C
:102790000E94940502E000932604109327040E94EF
:1027A000A50501E010E00C944F1400E015E00C9436
:1027B0004F140E949405009126040E94A5050F3F26
:1027C00069F40E94940503E0009326041093270403
:1027D0000E94A50501E010E00C944F1400E015E004
:1027E0000C944F140E949405009126040E94A505A4
:1027F0000F3F69F40E94940504E0009326041093AF
:1028000027040E94A50501E010E00C944F1400E09D
:1028100015E00C944F140E949405009126040E9428
:10282000A5050F3F69F40E94940505E00093260476
:10283000109327040E94A50501E010E00C944F14AA
:1028400000E015E00C944F1400E014E00C944F14D9
:1028500001E010E00C944F14113069F40091030270
:10286000013049F001E00093030200911E02006272
:1028700000931E020DBBA4EAB3E008E0A00F00E045
:10288000B01FC4E0D2E014E10D9109931A95E1F76D
:1028900011E00E94940A01E010E00C944F14A6EE9F
:1028A000B3E026E0A20F20E0B21F0D931C930E941C
:1028B0009A0FA4EAB3E010E400E00D931A95E9F74B
:1028C000BF91AF912F911F910F910895AF93BF9337
:1028D000EF93FF930E9494057091A103723029F049
:1028E0000E94A50500E00C94D51470916B04703023
:1028F00061F0ADE6B4E0A00F70E0B71F71E07C932B
:102900000E94A50500E00C94D51471E070936B044F
:102910000E94A505F4E1EAE90F93000FE01F0F9173
:1029200008F4F395AAE2B4E076E0A70F70E0B71FD1
:102930000D9309940C94A6140C94B1140C94B61431
:102940000C94BB140C94C0140C94C2140091190282
:102950000D9300911A020D9300911D020D930C949A
:10296000CA1400911D020D930C94CA1400911A020E
:102970000D930C94CA14009119020D930C94CA146F
:102980000C94CA14009136030D93009137030D93F4
:102990000C94CA140E941810013039F00E9494055A
:1029A00070E070936B040E94A505FF91EF91BF91B9
:1029B000AF9108951F932F93AF93BF930E949405F7
:1029C0000091A1030E94A505023019F010E00C94BB
:1029D0001615ADE6B4E020917304A20F10E0B11F0C
:1029E0000C91013081F4022F0E94661411E0013035
:1029F000E9F400E00C932395263009F420E02093BD
:102A000073040C9416151395163019F410E00C94F9
:102A100016152395263029F0A39500E0B01F0C94DD
:102A2000F014ADE6B4E020E00C94F014012FBF9157
:102A3000AF912F911F9108950E9494050F930091DB
:102A40007A04013021F001E000937A0404C00F9170
:102A50000E94A50508950E94A50500917904003003
:102A600031F00130C9F0023029F10C949415009135
:102A7000770403950E3121F0009377040C9494159C
:102A80001F93009178040E949D15012F1F91013022
:102A9000A9F501E0009379041F93009178040E9446
:102AA000A915012F1F910130F9F502E00093790477
:102AB0000C9494151F932F933F93009178040E94D8
:102AC000B115113021F03F912F911F9117C0303077
:102AD00009F020E0003019F410917B0402C010913D
:102AE0007C042117A1F0003019F420937B0402C06C
:102AF00020937C0438E00E94940A09C004E000930B
:102B000079043F9338E00E94940A3F910DC011E090
:102B100001270093780410E01093770410E01093DD
:102B200079043F912F911F910E94940500E000933A
:102B30007A040E94A5050F9108950E94C5151130D1
:102B400039F41CEC0E94F61514E40E94F61511E00D
:102B500008950E9423161F3F11F411E0089510E01C
:102B600008950E94C515113079F41CEC0E94F615E9
:102B70001EEB0E94F6150E942316212F0E94231699
:102B8000312F0E94C51511E008952F933F930E94A5
:102B9000940530B3003021F48998819A0C94D215B1
:102BA0008898809A20E20E94A8162A95E1F730BB07
:102BB0000E94A81626E00E94A8163FB1003019F422
:102BC000327041F003C0317029F000C02A9599F7A6
:102BD00010E007C011E039E1230F0E94A8162A95E2
:102BE000E1F70E94A5053F912F9108952F93212F82
:102BF00010E020FD13950E94481610E021FD13956A
:102C00000E94481610E022FD13950E94481610E01D
:102C100023FD13950E94481610E024FD13950E9491
:102C2000481610E025FD13950E94481610E026FD79
:102C300013950E94481610E027FD13950E94481630
:102C4000122F2F9108952F9320E00E94761610FDE9
:102C500021600E94761610FD22600E94761610FDFB
:102C600024600E94761610FD28600E94761610FDE2
:102C700020610E94761610FD20620E94761610FDDB
:102C800020640E94761610FD2068122F2F9108955F
:102C90002F933F930E94940530B3003021F489981C
:102CA000819A0C9455168898809A103059F40E9495
:102CB000A8160E94A8160E94A8160E94A81630BB4B
:102CC0000C946F160E94A01630BB0E94A0160E94A2
:102CD000A0160E94A8160E94A8160E94A8160E947C
:102CE000A0160E94A5053F912F9108952F933F9321
:102CF0000E94940530B3003021F48998819A0C9495
:102D000083168898809A0E94A01630BB0E94A01655
:102D10002FB1003019F4227029F002C0217011F097
:102D200011E001C010E00E94A8160E94A8160E949F
:102D3000A8160E94A8160E94A5053F912F910895FC
:102D40000F9308E0000000000A95E1F70F91089545
:102D50000F930CE1000000000A95E1F70F91089530
:00000001FF
